{
  "contractName": "MaizeInsurance",
  "abi": [
    {
      "constant": true,
      "inputs": [],
      "name": "client",
      "outputs": [
        {
          "internalType": "address payable",
          "name": "",
          "type": "address"
        }
      ],
      "payable": false,
      "stateMutability": "view",
      "type": "function"
    },
    {
      "constant": true,
      "inputs": [],
      "name": "insurer",
      "outputs": [
        {
          "internalType": "address payable",
          "name": "",
          "type": "address"
        }
      ],
      "payable": false,
      "stateMutability": "view",
      "type": "function"
    },
    {
      "constant": true,
      "inputs": [],
      "name": "get_policy",
      "outputs": [
        {
          "components": [
            {
              "internalType": "uint256",
              "name": "client_id",
              "type": "uint256"
            },
            {
              "internalType": "uint256",
              "name": "policy_id",
              "type": "uint256"
            },
            {
              "internalType": "string",
              "name": "maize_variety",
              "type": "string"
            },
            {
              "internalType": "uint256",
              "name": "start_date",
              "type": "uint256"
            },
            {
              "internalType": "uint256",
              "name": "end_date",
              "type": "uint256"
            }
          ],
          "internalType": "struct MaizeInsurance.Policy[]",
          "name": "",
          "type": "tuple[]"
        }
      ],
      "payable": false,
      "stateMutability": "view",
      "type": "function"
    },
    {
      "constant": false,
      "inputs": [
        {
          "components": [
            {
              "internalType": "uint256",
              "name": "client_id",
              "type": "uint256"
            },
            {
              "internalType": "uint256",
              "name": "policy_id",
              "type": "uint256"
            },
            {
              "internalType": "string",
              "name": "maize_variety",
              "type": "string"
            },
            {
              "internalType": "uint256",
              "name": "start_date",
              "type": "uint256"
            },
            {
              "internalType": "uint256",
              "name": "end_date",
              "type": "uint256"
            }
          ],
          "internalType": "struct MaizeInsurance.Policy",
          "name": "_policy",
          "type": "tuple"
        }
      ],
      "name": "add_policy",
      "outputs": [],
      "payable": false,
      "stateMutability": "nonpayable",
      "type": "function"
    },
    {
      "constant": true,
      "inputs": [
        {
          "internalType": "uint8[12]",
          "name": "weekly_rain_avgs",
          "type": "uint8[12]"
        },
        {
          "internalType": "uint8[3]",
          "name": "monthly_rain_avgs",
          "type": "uint8[3]"
        },
        {
          "internalType": "uint8[12]",
          "name": "weekly_temp_avgs",
          "type": "uint8[12]"
        },
        {
          "internalType": "uint8[3]",
          "name": "monthly_temp_avgs",
          "type": "uint8[3]"
        }
      ],
      "name": "validate",
      "outputs": [
        {
          "internalType": "bool",
          "name": "validation",
          "type": "bool"
        }
      ],
      "payable": false,
      "stateMutability": "view",
      "type": "function"
    }
  ],
  "bytecode": "0x600f6101208181526e48796272696420536572696573203560881b6101409081526080918252606461016081815260c861018081905260a09190915260126101a081815260186101c081905260c0919091526101e09384526102009290925260e092909252610260604052610220918252610240526101005290916002916200008b9183919062000213565b506020820151620000a3906001830190600262000298565b506040820151620000bb906002808401919062000298565b506060820151620000d3906003830190600262000298565b506080820151620000eb906004830190600262000298565b50506040805160e081018252600f60a082019081526e48796272696420536572696573203560881b60c0830152815281518083018352606480825260c86020838101829052808501939093528451808601865260128082526018828601819052868801929092528651808801885293845283850192909252606085019290925284518086019095528452838201526080820192909252805180519193506007926200019c9284929091019062000213565b506020820151620001b4906001830190600262000298565b506040820151620001cc906002808401919062000298565b506060820151620001e4906003830190600262000298565b506080820151620001fc906004830190600262000298565b5050503480156200020c57600080fd5b506200036f565b828054600181600116156101000203166002900490600052602060002090601f016020900481019282601f106200025657805160ff191683800117855562000286565b8280016001018555821562000286579182015b828111156200028657825182559160200191906001019062000269565b50620002949291506200032e565b5090565b600183019183908215620003205791602002820160005b83821115620002ef57835183826101000a81548160ff021916908360ff1602179055509260200192600101602081600001049283019260010302620002af565b80156200031e5782816101000a81549060ff0219169055600101602081600001049283019260010302620002ef565b505b50620002949291506200034e565b6200034b91905b8082111562000294576000815560010162000335565b90565b6200034b91905b808211156200029457805460ff1916815560010162000355565b610b08806200037f6000396000f3fe608060405234801561001057600080fd5b50600436106100575760003560e01c8063109e94cf1461005c5780634e8e59751461007a57806364168d281461008f578063944319cc146100a4578063dbc837c5146100c4575b600080fd5b6100646100cc565b6040516100719190610990565b60405180910390f35b61008d610088366004610812565b6100db565b005b6100976101c8565b604051610071919061099e565b6100b76100b23660046107ad565b6102f2565b60405161007191906109af565b61006461052f565b6000546001600160a01b031681565b6040805160a08101825282518152602080840151818301908152848401519383019384526060808601519084015260808086015190840152600c805460018101808355600092909252845160059091027fdf6966c971051c3d54ec59162606531493a51404a002842f56009d7e5cf4a8c7810191825592517fdf6966c971051c3d54ec59162606531493a51404a002842f56009d7e5cf4a8c8840155945180519195936101ad937fdf6966c971051c3d54ec59162606531493a51404a002842f56009d7e5cf4a8c9019291019061053e565b50606082015181600301556080820151816004015550505050565b6060600c805480602002602001604051908101604052809291908181526020016000905b828210156102e857838290600052602060002090600502016040518060a00160405290816000820154815260200160018201548152602001600282018054600181600116156101000203166002900480601f0160208091040260200160405190810160405280929190818152602001828054600181600116156101000203166002900480156102bc5780601f10610291576101008083540402835291602001916102bc565b820191906000526020600020905b81548152906001019060200180831161029f57829003601f168201915b5050505050815260200160038201548152602001600482015481525050815260200190600101906101ec565b5050505090505b90565b60006001808080845b600b8160ff1610156103f35760055460ff908116908b908316600c811061031e57fe5b602002015160ff161180156103545750600554610100900460ff908116908b908316600c811061034a57fe5b602002015160ff16105b1561036b57848015610364575060015b9450610379565b848015610376575060005b94505b60065460ff9081169089908316600c811061039057fe5b602002015160ff161180156103c65750600654610100900460ff9081169089908316600c81106103bc57fe5b602002015160ff16105b156103dd578280156103d6575060015b92506103eb565b8280156103e8575060005b92505b6001016102fb565b5060005b60028160ff1610156104ef576003805460ff908116918b91841690811061041a57fe5b602002015160ff16118015610450575060038054610100900460ff908116918b91841690811061044657fe5b602002015160ff16105b1561046757838015610460575060015b9350610475565b838015610472575060005b93505b60045460ff90811690889083166003811061048c57fe5b602002015160ff161180156104c25750600454610100900460ff9081169088908316600381106104b857fe5b602002015160ff16105b156104d9578180156104d2575060015b91506104e7565b8180156104e4575060005b91505b6001016103f7565b508380156104fa5750815b80156105035750825b801561050c5750805b1561051e576000945050505050610527565b60019450505050505b949350505050565b6001546001600160a01b031681565b828054600181600116156101000203166002900490600052602060002090601f016020900481019282601f1061057f57805160ff19168380011785556105ac565b828001600101855582156105ac579182015b828111156105ac578251825591602001919060010190610591565b506105b89291506105bc565b5090565b6102ef91905b808211156105b857600081556001016105c2565b600082601f8301126105e757600080fd5b600c6105fa6105f5826109e4565b6109bd565b9150818385602084028201111561061057600080fd5b60005b8381101561063c578161062688826107a2565b8452506020928301929190910190600101610613565b5050505092915050565b600082601f83011261065757600080fd5b60036106656105f5826109e4565b9150818385602084028201111561067b57600080fd5b60005b8381101561063c578161069188826107a2565b845250602092830192919091019060010161067e565b600082601f8301126106b857600080fd5b81356106c66105f582610a02565b915080825260208301602083018583830111156106e257600080fd5b6106ed838284610a5f565b50505092915050565b600060a0828403121561070857600080fd5b61071260a06109bd565b905060006107208484610791565b825250602061073184848301610791565b602083015250604082013567ffffffffffffffff81111561075157600080fd5b61075d848285016106a7565b604083015250606061077184828501610791565b606083015250608061078584828501610791565b60808301525092915050565b803561079c81610aa5565b92915050565b803561079c81610abc565b6000806000806103c085870312156107c457600080fd5b60006107d087876105d6565b9450506101806107e287828801610646565b9350506101e06107f4878288016105d6565b92505061036061080687828801610646565b91505092959194509250565b60006020828403121561082457600080fd5b813567ffffffffffffffff81111561083b57600080fd5b610527848285016106f6565b60006108538383610918565b9392505050565b61086381610a3d565b82525050565b600061087482610a30565b61087e8185610a34565b93508360208202850161089085610a2a565b8060005b858110156108ca57848403895281516108ad8582610847565b94506108b883610a2a565b60209a909a0199925050600101610894565b5091979650505050505050565b61086381610a48565b60006108eb82610a30565b6108f58185610a34565b9350610905818560208601610a6b565b61090e81610a9b565b9093019392505050565b805160009060a084019061092c8582610987565b50602083015161093f6020860182610987565b506040830151848203604086015261095782826108e0565b915050606083015161096c6060860182610987565b50608083015161097f6080860182610987565b509392505050565b610863816102ef565b6020810161079c828461085a565b602080825281016108538184610869565b6020810161079c82846108d7565b60405181810167ffffffffffffffff811182821017156109dc57600080fd5b604052919050565b600067ffffffffffffffff8211156109fb57600080fd5b5060200290565b600067ffffffffffffffff821115610a1957600080fd5b506020601f91909101601f19160190565b60200190565b5190565b90815260200190565b600061079c82610a4d565b151590565b6001600160a01b031690565b60ff1690565b82818337506000910152565b60005b83811015610a86578181015183820152602001610a6e565b83811115610a95576000848401525b50505050565b601f01601f191690565b610aae816102ef565b8114610ab957600080fd5b50565b610aae81610a5956fea365627a7a7231582094c0b1c7c281543dbd8997d92e81080ef1fa2e2f1d07aa76ea7f63816a1a36c06c6578706572696d656e74616cf564736f6c63430005100040",
  "source": "// SPDX-License-Identifier: GPL-3.0\n\npragma solidity >=0.4.22 <0.9.0;\npragma experimental ABIEncoderV2;\n/**\n * @title Storage\n * @dev Store & retrieve value in a variable\n */\ncontract MaizeInsurance {\n\n    /*\n        * Main Variables *\n        policy {\n            - client_id: unsigned integer\n            - policy_id: unsigned integer\n            - maize_variety: string\n            - start_date: uint256 => because we use epoch time\n            - end_date: uint256\n        } - struct\n        - buyers_address: address\n        - sellers_address: adress\n    */\n    \n    address payable public client;\n    address payable public insurer;\n    \n    struct Policy{\n        uint client_id;\n        uint policy_id;\n        string maize_variety;\n        uint256 start_date;\n        uint256 end_date;\n    }\n    \n    struct Variety{\n        string variety_name;\n        uint8[2] acceptable_monthly_rain_avgs;\n        uint8[2] acceptable_monthly_temp_avgs;\n        uint8[2] acceptable_weekly_rain_avgs;\n        uint8[2] acceptable_weekly_temp_avgs;\n    }\n\n    Variety Hybrid_Series_5 = Variety(\"Hybrid Series 5\", [100, 200], [18, 24], [100, 200], [18, 24]);\n    Variety Hybrid_Series_6 = Variety(\"Hybrid Series 5\", [100, 200], [18, 24], [100, 200], [18, 24]);\n\n    \n    Policy[] policies;\n    Variety[] varieties; //this will hold all the threshold data for the different varieties \n\n\n    /*\n        * Main Functions *\n        - constructor () => Initialize a new contract\n        - validate () => Validate that thresholds were met\n        \n        * Accessor Functions*\n        -get_policy\n        \n        * Mutation Functions*\n        -set_policy\n    */\n    \n    // constructor() {\n    //     policy = Policy(1, 1, \"Hybrid Series 5\", 1606063665, 1611334065);\n    // }\n    \n    function get_policy() public view returns(Policy[] memory){\n        return policies;\n    }\n    \n    function add_policy(Policy memory _policy) public{\n        policies.push(\n            Policy(_policy.client_id, _policy.policy_id, _policy.maize_variety, _policy.start_date, _policy.end_date) \n        );\n    }\n    \n    function validate(\n        // Policy memory policy, //not sure why I put this here. \n        uint8[12] memory  weekly_rain_avgs, \n        uint8[3]  memory monthly_rain_avgs,\n        uint8[12] memory  weekly_temp_avgs, \n        uint8[3]  memory monthly_temp_avgs\n        ) public view returns (bool validation){\n\n        bool weekly_rain_flag = true;\n        bool monthly_rain_flag = true;\n        bool weekly_temp_flag = true;\n        bool monthly_temp_flag = true;\n\n        for (uint8 i=0; i<11; i++){\n            //check weekly rain averages\n            if (weekly_rain_avgs[i] > Hybrid_Series_5.acceptable_weekly_rain_avgs[0] && weekly_rain_avgs[i] < Hybrid_Series_5.acceptable_weekly_rain_avgs[1]){\n                weekly_rain_flag = weekly_rain_flag && true;\n            } else {\n                weekly_rain_flag = weekly_rain_flag && false;\n            }\n\n            //check weekly temp averages\n            if (weekly_temp_avgs[i] > Hybrid_Series_5.acceptable_weekly_temp_avgs[0] && weekly_temp_avgs[i] < Hybrid_Series_5.acceptable_weekly_temp_avgs[1]){\n                weekly_temp_flag = weekly_temp_flag && true;\n            } else {\n                weekly_temp_flag = weekly_temp_flag && false;\n            }\n        }\n\n        for (uint8  i=0; i<2; i++){\n            //check monthly rain averages\n            if (monthly_rain_avgs[i] > Hybrid_Series_5.acceptable_monthly_rain_avgs[0] && monthly_rain_avgs[i] < Hybrid_Series_5.acceptable_monthly_rain_avgs[1]){\n                monthly_rain_flag = monthly_rain_flag && true;\n            } else {\n                monthly_rain_flag = monthly_rain_flag && false;\n            }\n\n            //check monthly temp averages\n            if (monthly_temp_avgs[i] > Hybrid_Series_5.acceptable_monthly_temp_avgs[0]&& monthly_temp_avgs[i] < Hybrid_Series_5.acceptable_monthly_temp_avgs[1]){\n                monthly_temp_flag = monthly_temp_flag && true;\n            } else {\n                monthly_temp_flag = monthly_temp_flag && false;\n            }\n        }\n\n        if (weekly_rain_flag && weekly_temp_flag && monthly_rain_flag && monthly_temp_flag){\n            return false; // No payout, all conditions within normal range\n        } else {\n            return true; // Payout, conditions outside normal range\n        }\n        \n    }\n  \n}",
  "sourcePath": "/home/w3ndo/Desktop/School/2021/Final Year Project/KilimoShwari-Solidity/workflow2/contracts/KilimoShwari.sol",
  "compiler": {
    "name": "solc",
    "version": "0.5.16+commit.9c3226ce.Emscripten.clang"
  },
  "schemaVersion": "3.4.3",
  "updatedAt": "2021-12-27T02:34:53.140Z",
  "devdoc": {
    "details": "Store & retrieve value in a variable",
    "methods": {},
    "title": "Storage"
  },
  "userdoc": {
    "methods": {}
  }
}