{
  "contractName": "MaizeInsurance",
  "abi": [
    {
      "constant": true,
      "inputs": [],
      "name": "client",
      "outputs": [
        {
          "internalType": "address payable",
          "name": "",
          "type": "address"
        }
      ],
      "payable": false,
      "stateMutability": "view",
      "type": "function"
    },
    {
      "constant": true,
      "inputs": [],
      "name": "insurer",
      "outputs": [
        {
          "internalType": "address payable",
          "name": "",
          "type": "address"
        }
      ],
      "payable": false,
      "stateMutability": "view",
      "type": "function"
    },
    {
      "constant": true,
      "inputs": [],
      "name": "get_policy",
      "outputs": [
        {
          "components": [
            {
              "internalType": "uint256",
              "name": "client_id",
              "type": "uint256"
            },
            {
              "internalType": "uint256",
              "name": "policy_id",
              "type": "uint256"
            },
            {
              "internalType": "string",
              "name": "maize_variety",
              "type": "string"
            },
            {
              "internalType": "uint256",
              "name": "start_date",
              "type": "uint256"
            },
            {
              "internalType": "uint256",
              "name": "end_date",
              "type": "uint256"
            }
          ],
          "internalType": "struct MaizeInsurance.Policy[]",
          "name": "",
          "type": "tuple[]"
        }
      ],
      "payable": false,
      "stateMutability": "view",
      "type": "function"
    },
    {
      "constant": false,
      "inputs": [
        {
          "components": [
            {
              "internalType": "uint256",
              "name": "client_id",
              "type": "uint256"
            },
            {
              "internalType": "uint256",
              "name": "policy_id",
              "type": "uint256"
            },
            {
              "internalType": "string",
              "name": "maize_variety",
              "type": "string"
            },
            {
              "internalType": "uint256",
              "name": "start_date",
              "type": "uint256"
            },
            {
              "internalType": "uint256",
              "name": "end_date",
              "type": "uint256"
            }
          ],
          "internalType": "struct MaizeInsurance.Policy",
          "name": "_policy",
          "type": "tuple"
        }
      ],
      "name": "add_policy",
      "outputs": [],
      "payable": false,
      "stateMutability": "nonpayable",
      "type": "function"
    },
    {
      "constant": false,
      "inputs": [],
      "name": "validate",
      "outputs": [
        {
          "internalType": "bool",
          "name": "validate",
          "type": "bool"
        }
      ],
      "payable": false,
      "stateMutability": "nonpayable",
      "type": "function"
    }
  ],
  "bytecode": "0x608060405234801561001057600080fd5b50610764806100206000396000f3fe608060405234801561001057600080fd5b50600436106100575760003560e01c8063109e94cf1461005c5780634e8e59751461007a57806364168d281461008f5780636901f668146100a4578063dbc837c5146100b9575b600080fd5b6100646100c1565b6040516100719190610619565b60405180910390f35b61008d610088366004610493565b6100d0565b005b6100976101bd565b6040516100719190610627565b6100ac6102e7565b6040516100719190610638565b6100646102ec565b6000546001600160a01b031681565b6040805160a081018252825181526020808401518183019081528484015193830193845260608086015190840152608080860151908401526002805460018101808355600092909252845160059091027f405787fa12a823e0f2b7631cc41b3ba8828b3321ca811111fa75cd3aa3bb5ace810191825592517f405787fa12a823e0f2b7631cc41b3ba8828b3321ca811111fa75cd3aa3bb5acf840155945180519195936101a2937f405787fa12a823e0f2b7631cc41b3ba8828b3321ca811111fa75cd3aa3bb5ad001929101906102fb565b50606082015181600301556080820151816004015550505050565b60606002805480602002602001604051908101604052809291908181526020016000905b828210156102dd57838290600052602060002090600502016040518060a00160405290816000820154815260200160018201548152602001600282018054600181600116156101000203166002900480601f0160208091040260200160405190810160405280929190818152602001828054600181600116156101000203166002900480156102b15780601f10610286576101008083540402835291602001916102b1565b820191906000526020600020905b81548152906001019060200180831161029457829003601f168201915b5050505050815260200160038201548152602001600482015481525050815260200190600101906101e1565b5050505090505b90565b600190565b6001546001600160a01b031681565b828054600181600116156101000203166002900490600052602060002090601f016020900481019282601f1061033c57805160ff1916838001178555610369565b82800160010185558215610369579182015b8281111561036957825182559160200191906001019061034e565b50610375929150610379565b5090565b6102e491905b80821115610375576000815560010161037f565b600082601f8301126103a457600080fd5b81356103b76103b28261066d565b610646565b915080825260208301602083018583830111156103d357600080fd5b6103de8382846106c4565b50505092915050565b600060a082840312156103f957600080fd5b61040360a0610646565b905060006104118484610482565b825250602061042284848301610482565b602083015250604082013567ffffffffffffffff81111561044257600080fd5b61044e84828501610393565b604083015250606061046284828501610482565b606083015250608061047684828501610482565b60808301525092915050565b803561048d8161070a565b92915050565b6000602082840312156104a557600080fd5b813567ffffffffffffffff8111156104bc57600080fd5b6104c8848285016103e7565b949350505050565b60006104dc83836105a1565b9392505050565b6104ec816106a8565b82525050565b60006104fd8261069b565b610507818561069f565b93508360208202850161051985610695565b8060005b85811015610553578484038952815161053685826104d0565b945061054183610695565b60209a909a019992505060010161051d565b5091979650505050505050565b6104ec816106b3565b60006105748261069b565b61057e818561069f565b935061058e8185602086016106d0565b61059781610700565b9093019392505050565b805160009060a08401906105b58582610610565b5060208301516105c86020860182610610565b50604083015184820360408601526105e08282610569565b91505060608301516105f56060860182610610565b5060808301516106086080860182610610565b509392505050565b6104ec816102e4565b6020810161048d82846104e3565b602080825281016104dc81846104f2565b6020810161048d8284610560565b60405181810167ffffffffffffffff8111828210171561066557600080fd5b604052919050565b600067ffffffffffffffff82111561068457600080fd5b506020601f91909101601f19160190565b60200190565b5190565b90815260200190565b600061048d826106b8565b151590565b6001600160a01b031690565b82818337506000910152565b60005b838110156106eb5781810151838201526020016106d3565b838111156106fa576000848401525b50505050565b601f01601f191690565b610713816102e4565b811461071e57600080fd5b5056fea365627a7a7231582014feefad233ea3ad768c692bb3d4dceeab1f2a0a7fc033a8598aa8705f10011d6c6578706572696d656e74616cf564736f6c63430005100040",
  "source": "// SPDX-License-Identifier: GPL-3.0\n\npragma solidity >=0.4.22 <0.9.0;\npragma experimental ABIEncoderV2;\n/**\n * @title Storage\n * @dev Store & retrieve value in a variable\n */\ncontract MaizeInsurance {\n\n    /*\n        * Main Variables *\n        policy {\n            - client_id: unsigned integer\n            - policy_id: unsigned integer\n            - maize_variety: string\n            - start_date: uint256 => because we use epoch time\n            - end_date: uint256\n        } - struct\n        - buyers_address: address\n        - sellers_address: adress\n    */\n    \n    address payable public client;\n    address payable public insurer;\n    \n    struct Policy{\n        uint client_id;\n        uint policy_id;\n        string maize_variety;\n        uint256 start_date;\n        uint256 end_date;\n    }\n    \n    struct Variety{\n        string variety_name;\n        uint[2] acceptable_monthly_rain_avgs;\n        uint[2] acceptable_monthly_temp_avgs;\n        uint[2] acceptable_weekly_rain_avgs;\n        uint[2] acceptable_weekly_temp_avgs;\n    }\n    \n    Policy[] policies;\n    Variety[] varieties; //this will hold all the threshold data for the different varieties \n\n\n    /*\n        * Main Functions *\n        - constructor () => Initialize a new contract\n        - validate () => Validate that thresholds were met\n        \n        * Accessor Functions*\n        -get_policy\n        \n        * Mutation Functions*\n        -set_policy\n    */\n    \n    // constructor() {\n    //     policy = Policy(1, 1, \"Hybrid Series 5\", 1606063665, 1611334065);\n    // }\n    \n    function get_policy() public view returns(Policy[] memory){\n        return policies;\n    }\n    \n    function add_policy(Policy memory _policy) public{\n        policies.push(\n            Policy(_policy.client_id, _policy.policy_id, _policy.maize_variety, _policy.start_date, _policy.end_date) \n        );\n    }\n    \n    function validate() public returns (bool validate){\n        return true;\n    }\n  \n}",
  "sourcePath": "/home/w3ndo/Desktop/School/2021/Final Year Project/KilimoShwari-Solidity/workflow2/contracts/KilimoShwari.sol",
  "compiler": {
    "name": "solc",
    "version": "0.5.16+commit.9c3226ce.Emscripten.clang"
  },
  "schemaVersion": "3.4.3",
  "updatedAt": "2021-11-26T00:17:46.351Z",
  "networkType": "ethereum",
  "devdoc": {
    "details": "Store & retrieve value in a variable",
    "methods": {},
    "title": "Storage"
  },
  "userdoc": {
    "methods": {}
  }
}